:100000000C942A000C9434000C9434000C943400AA
:100010000C9434000C9434000C9434000C94340090
:100020000C9434000C9434000C9434000C94340080
:100030000C9434000C9434000C9434000C94340070
:100040000C9434000C9434000C9434000C94340060
:100050000C94340011241FBECFE5D4E0DEBFCDBF29
:100060000E9436000C9456000C9400001ABA8FE0DF
:100070008BBB8FEF84BB81E085BBCB99FECF95B363
:1000800085B3990F881F8827881F892B85BB8FE22E
:1000900095E70197F1F700C00000CB9BFECF8FE200
:1000A00095E70197F1F700C00000E7CFF894FFCF84
:00000001FF
