S010000054696D65725F30322E7372656352
S11300000C942A000C943C000C943C000C943C008E
S11300100C943C000C943C000C943C000C943C006C
S11300200C943C000C943C000C943C000C943C005C
S11300300C943C000C943C000C943C000C943C004C
S11300400C943C000C943C000C943C000C943C003C
S11300500C943C0011241FBECFE5D4E0DEBFCDBF1D
S113006020E0A0E6B0E001C01D92A236B207E1F79D
S11300700E943E000C945F000C9400008FEF84BB40
S113008015BA83B7816083BF21E008B600FEFDCFB7
S1130090809160009091610001968D383BE5930753
S11300A02CF4909361008093600007C0109261006B
S11300B01092600085B3809585BB28BFE6CFF89485
S10500C0FFCF6C
S9030000FC
