:100000000C942A000C943C000C943C000C943C0092
:100010000C943C000C943C000C943C000C943C0070
:100020000C943C000C943C000C943C000C943C0060
:100030000C943C000C943C000C943C000C943C0050
:100040000C943C000C943C000C943C000C943C0040
:100050000C943C0011241FBECFE5D4E0DEBFCDBF21
:1000600020E0A0E6B0E001C01D92A336B207E1F7A0
:100070000E9448000C9459000C9400008EEE80936E
:100080006200809160008F5F8093600088BB08955C
:10009000C1E0DFEF11E1C09362000E943E00809159
:1000A0006200809361008E3E11F412BBF4CFD2BB8C
:0600B000F2CFF894FFCF2F
:00000001FF
