S01400004472656867656265725F30332E73726563C6
S11300000C942A000C9447000C9447000C9447006D
S11300100C9447000C9447000C9447000C94470040
S11300200C9447000C9447000C9447000C94470030
S11300300C9447000C9447000C9447000C94470020
S11300400C9447000C9447000C9447000C94470010
S11300500C94470011241FBECFE5D4E0DEBFCDBF12
S113006010E0A0E6B0E0E4E2F7E002C005900D92F3
S1130070AE36B107D9F720E0AEE6B0E001C01D927C
S1130080A537B207E1F70E94FB000C9490030C948F
S11300900000DC9AE7E5F2E03197F1F700C00000D8
S11300A0DE9898B39B7198BB80FDC29A81FDC59A76
S11300B082FDC69A83FDC79A84FDDE9ADC9887E5A3
S11300C092E00197F1F700C0000008958FE59AEEE1
S11300D00197F1F700C0000080E00E9449008FE51D
S11300E09AEE0197F1F700C0000082E00E944900F7
S11300F008958AB380658ABB87B3846E87BB8FE516
S11301009AEE0197F1F700C0000083E00E944900D5
S11301108FE295E70197F1F700C0000083E40E94A5
S1130120490087EB9BE00197F1F700C0000083E0F2
S11301300E94490082E00E94490082E00E94490036
S113014088E00E94490080E00E9449008CE00E94FF
S1130150490080E00E94490081E00E94490080E05B
S11301600E94490086E00E94490087EB9BE00197CA
S1130170F1F700C000000E94660064EC70E080E0CB
S113018090E00E945B030895CF93C62F862F82953B
S11301908F70E7E5F2E03197F1F700C0000080616D
S11301A00E9449008C2F8F70E7E5F2E03197F1F758
S11301B000C0000080610E944900CF910895CF9350
S11301C0C62F8111C05C8C2F82958F70E7E5F2E019
S11301D03197F1F700C0000088600E94490087E56C
S11301E092E00197F1F700C000008C2F8F700E94FD
S11301F04900CF91089511BA8FEF84BB82BB15BA21
S11302000E94790060E080E00E94DF0080E690E0D8
S11302109F938F930E9464030F900F90FF24F39495
S1130220CF2DDFEF08E610E0839B18C090916E009D
S11302309130A1F4D0936F00849B06C0909170001C
S113024091509093700007C0849905C090917000FC
S11302509F5F9093700010926E0008C0839906C04F
S113026090916E00911102C0C0936E0090916F0046
S11302709923D1F260E08F2D0E94DF0090917000ED
S11302801F929F931F930F930E9464039091700099
S113029095BB10926F000F900F900F900F90C4CFEA
S11302A08F929F92AF92BF92CF92DF92EF92FF9282
S11302B00F931F93CF93DF93EC018B015A017901C4
S11302C086179707A0F0E1E0F0E0CF01809FF001EE
S11302D0819FF00D909FF00D1124CE01BF010E946B
S11302E07C036017710788F7309719F437C0E1E091
S11302F0F0E0C12CD12C01C07A01CE01BF010E94D3
S11303007C03362F262F862E972EC82FD92FCF0168
S1130310B8010E947C03FB01C114D10439F4181400
S1130320190424F0309711F1A701E6CFA7014F5F1C
S11303305F4F9AE0891691042CF0A114B10421F4C2
S113034087E503C080E301C087E3380FD7013C93FE
S1130350BFEFCB1ADB0A309779F601C0A701FA0187
S113036010820CC0205DD7012C93F9CFA7014F5FF9
S11303705F4FBAE08B16910404F7F4CFDF91CF916D
S11303801F910F91FF90EF90DF90CF90BF90AF90AF
S11303909F908F9008959F92AF92BF92CF92DF92D9
S11303A0EF92FF920F931F93CF93DF936C015B0146
S11303B0211104C06894992495F804C00F2EF0E329
S11303C09F2EF02D78018FEFE81AF80AF80160816A
S11303D0662349F11416150664F5F70141505109D5
S11303E081918823D1F041155105C1F722C0692DAF
S11303F0C601F50109952197CE0101961816190633
S1130400B4F3F80160816623B9F0E701C601F50190
S1130410099569916111FACF0FC0EA012197141669
S113042015062CF3F2CFEA01219714161506FCF2F7
S113043003C0F8016081E9CFDF91CF911F910F9143
S1130440FF90EF90DF90CF90BF90AF909F90089572
S11304502F923F924F925F926F927F928F929F92D0
S1130460AF92BF92CF92DF92EF92FF920F931F93BE
S1130470CF93DF93CDB7DEB760970FB6F894DEBFA6
S11304800FBECDBF4C015B016A018901212C9E0185
S11304902F5F3F4F3E872D87512C312CCE01029682
S11304A0988B8F87EBC0653239F09FEFC91AD90A50
S11304B0C401F5010995E2C0F6018181803329F078
S11304C0F2E0CF0ED11C412C08C0F60182819601C6
S11304D02D5F3F4F69014424439490ED980F9A3067
S11304E0A0F5A601E52CF32C11C0C701880F991FB4
S11304F0EE0CFF1CEE0CFF1CEE0CFF1CE80EF91EAC
S1130500E20EF31EF60180814F5F5F4F6A0190EDAA
S1130510980F9A3028F4282F30E02053310911C065
S11305209FE9980F963028F4282F30E02755310999
S113053008C09FEB980F963050F4282F30E02753D3
S113054031092B30310588F202C0E52CF32C8336B7
S113055009F476C050F4853209F48CC0883509F466
S113056050C0882309F48EC089C0833709F473C04E
S113057018F4843611F182C0853721F0883709F4E4
S113058040C07CC03801F2E06F0E711C9E012F5FE9
S11305903F4F452D532D6AE070E0F8018081918131
S11305A00E9450018E010F5F1F4F242DA701B5013A
S11305B0C4010E94CB01830161C03801F2E06F0ED7
S11305C0711CF80180819181992344F4919581955E
S11305D09109FDE2F9832F85388902C02D853E8576
S11305E0452D532D6AE070E00E9450018E010F5F8B
S11305F01F4F242DA701B501C4010E94CB01830123
S11306003DC0380122E0620E711C41E0522D883554
S113061011F0452D532D9E012F5F3F4F60E170E097
S1130620F801808191810E9450018E010F5F1F4F5C
S1130630242DA701B501C4010E94CB0183011EC072
S11306407801F2E0EF0EF11CF8016081C401F501BC
S11306500995870113C03801F2E06F0E711CF8018F
S11306600081118120E0A701B501C4010E94CB01E2
S1130670830104C065E2C401F5010995F6016081B6
S1130680611111CF60960FB6F894DEBF0FBECDBFD7
S1130690DF91CF911F910F91FF90EF90DF90CF905A
S11306A0BF90AF909F908F907F906F905F904F908E
S11306B03F902F900895709374006093730090930B
S11306C07200809371000895CF93DF93CDB7DEB7A6
S11306D09E012B5F3F4FF901419151919F01609120
S11306E073007091740080917100909172000E9467
S11306F02802DF91CF910895AA1BBB1B51E107C0CB
S1130700AA1FBB1FA617B70710F0A61BB70B881F9D
S1130710991F5A95A9F780959095BC01CD0108952C
S1070720F894FFCF77
S1110724454E434F44455200433D2535750074
S9030000FC
