S01400004472656867656265725F30312E73726563C8
S11300000C942A000C943C000C943E000C943C008C
S11300100C943C000C943C000C943C000C943C006C
S11300200C943C000C943C000C943C000C943C005C
S11300300C943C000C943C000C943C000C943C004C
S11300400C943C000C943C000C943C000C943C003C
S11300500C943C0011241FBECFE5D4E0DEBFCDBF1D
S113006020E0A0E6B0E001C01D92A136B207E1F79E
S11300700E9459000C9469000C9400001F920F9286
S11300800FB60F9211248F93849B06C08091600059
S113009081508093600007C0849905C080916000FE
S11300A08F5F809360008F910F900FBE0F901F9011
S11300B0189511BA8FEF84BB82BB15BA85B78C60D3
S11300C085BF8BB780688BBF78948091600085BBB7
S10900D0FCCFF894FFCF01
S9030000FC
