S00E00004441435F30322E737265638D
S11300000C942A000C9434000C9434000C943400A6
S11300100C9434000C9434000C9434000C9434008C
S11300200C9434000C9436000C9434000C9434007A
S11300300C9434000C9434000C9434000C9434006C
S11300400C9434000C9434000C9434000C9434005C
S11300500C94340011241FBECFE5D4E0DEBFCDBF25
S11300600E9445000C9456000C9400001F920F92BD
S11300700FB60F9211248F938CB78F5F8CBF8F9123
S11300800F900FBE0F901F9018958FEF87BB18BA73
S113009083B7816083BF83B7806283BF83B788647B
S11300A083BF89B7816089BF7894FFCFF894FFCF6D
S9030000FC
