:100000000C942A000C9434000C9434000C943400AA
:100010000C9434000C9434000C9434000C94340090
:100020000C9434000C9434000C9434000C94340080
:100030000C9434000C9434000C9434000C94340070
:100040000C9434000C9434000C9434000C94340060
:100050000C94340011241FBECFE5D4E0DEBFCDBF29
:100060000E9436000C9448000C9400008FEF84BB73
:1000700080EC85BBE7E0F7E03197F1F700C00000C6
:10008000AF98EFEAF4E03197F1F700C00000F1CF4C
:04009000F894FFCF12
:00000001FF
