:100000000C9431000C944E000C944E000C944E0055
:100010000C944E000C944E000C944E000C944E0028
:100020000C944E000C944E000C944E000C944E0018
:100030000C944E000C944E000C944E000C944E0008
:100040000C944E000C944E000C944E000C944E00F8
:100050000C944E001B011D011F01230125012901E4
:100060002D0111241FBECFE5D4E0DEBFCDBF10E0CF
:10007000A0E6B0E0E4EEF7E002C005900D92A037F4
:10008000B107D9F720E0A0E7B0E001C01D92A43786
:10009000B207E1F70E9468010C94F0030C94000091
:1000A000DC9AE7E5F2E03197F1F700C00000DE9856
:1000B00098B39B7198BB80FDC29A81FDC59A82FD61
:1000C000C69A83FDC79A84FDDE9ADC9887E592E0A4
:1000D0000197F1F700C0000008958FE59AEE0197AF
:1000E000F1F700C0000080E00E9450008FE59AEE1A
:1000F0000197F1F700C0000082E00E9450000895CF
:100100008AB380658ABB87B3846E87BB8FE59AEE1E
:100110000197F1F700C0000083E00E9450008FE2D9
:1001200095E70197F1F700C0000083E40E945000BA
:1001300087EB9BE00197F1F700C0000083E00E948D
:10014000500082E00E94500082E00E94500088E04F
:100150000E94500080E00E9450008CE00E945000FD
:1001600080E00E94500081E00E94500080E00E94E8
:10017000500086E00E94500087EB9BE00197F1F76A
:1001800000C000000E946D006BEC70E080E090E029
:100190000E94A6030895CF93C62F862F82958F7055
:1001A000E7E5F2E03197F1F700C0000080610E94BE
:1001B00050008C2F8F70E7E5F2E03197F1F700C027
:1001C000000080610E945000CF910895CF93C62F08
:1001D0008111C05C8C2F82958F70E7E5F2E031973A
:1001E000F1F700C0000088600E94500087E592E0AF
:1001F0000197F1F700C000008C2F8F700E94500013
:10020000CF910895CF93DF93CDB7DEB7C456D10910
:100210000FB6F894DEBF0FBECDBF17B897B190668A
:1002200097B990E0FC013197E730F105D0F4E65D35
:10023000FF4F0C94DB03389A17C0399A15C087B169
:10024000836087B911C03A9A0FC087B1856087B9BA
:100250000BC087B1866087B907C087B1876087B94F
:1002600003C087B1887F87B986B1876086B9359822
:10027000379AFE0131969E012B593F4FDF01369A86
:10028000369B03C000003699FDCF85B18D93A21730
:10029000B307A9F7379880E090E04191840F911D52
:1002A0002E173F07D1F79C01369527953695279550
:1002B000ABE7B4E10E94E10396958795CC59DF4FF7
:1002C0000FB6F894DEBF0FBECDBFDF91CF9108957A
:1002D0000E94800060E080E00E94E60080E690E0FE
:1002E0009F938F930E94AF038FEF84BB15BA0F903B
:1002F0000F900AE610E085E00E940201C82F85BB3E
:1003000060E081E00E94E6008C2F90E09C01220FCB
:10031000331F220F331F820F931F892F880F880BE3
:100320008F939F931F930F930E94AF030F900F9093
:100330000F900F90E0CF8F929F92AF92BF92CF928B
:10034000DF92EF92FF920F931F93CF93DF93EC0115
:100350008B015A01790186179707A0F0E1E0F0E0E0
:10036000CF01809FF001819FF00D909FF00D11242F
:10037000CE01BF010E94C7036017710788F730974D
:1003800019F437C0E1E0F0E0C12CD12C01C07A01B2
:10039000CE01BF010E94C703362F262F862E972E2F
:1003A000C82FD92FCF01B8010E94C703FB01C11488
:1003B000D10439F41814190424F0309711F1A7016D
:1003C000E6CFA7014F5F5F4F9AE0891691042CF0AA
:1003D000A114B10421F487E503C080E301C087E3E1
:1003E000380FD7013C93BFEFCB1ADB0A309779F671
:1003F00001C0A701FA0110820CC0205DD7012C9327
:10040000F9CFA7014F5F5F4FBAE08B16910404F755
:10041000F4CFDF91CF911F910F91FF90EF90DF907C
:10042000CF90BF90AF909F908F9008959F92AF9282
:10043000BF92CF92DF92EF92FF920F931F93CF93D1
:10044000DF936C015B01211104C06894992495F835
:1004500004C00F2EF0E39F2EF02D78018FEFE81AE5
:10046000F80AF8016081662349F11416150664F54F
:10047000F7014150510981918823D1F0411551056F
:10048000C1F722C0692DC601F50109952197CE015A
:10049000019618161906B4F3F80160816623B9F0C5
:1004A000E701C601F501099569916111FACF0FC005
:1004B000EA012197141615062CF3F2CFEA012197D1
:1004C00014161506FCF203C0F8016081E9CFDF9134
:1004D000CF911F910F91FF90EF90DF90CF90BF9041
:1004E000AF909F9008952F923F924F925F926F929C
:1004F0007F928F929F92AF92BF92CF92DF92EF92B4
:10050000FF920F931F93CF93DF93CDB7DEB7609722
:100510000FB6F894DEBF0FBECDBF4C015B016A0180
:100520008901212C9E012F5F3F4F3E872D87512C43
:10053000312CCE010296988B8F87EBC0653239F053
:100540009FEFC91AD90AC401F5010995E2C0F60165
:100550008181803329F0F2E0CF0ED11C412C08C0FC
:10056000F601828196012D5F3F4F69014424439437
:1005700090ED980F9A30A0F5A601E52CF32C11C050
:10058000C701880F991FEE0CFF1CEE0CFF1CEE0C30
:10059000FF1CE80EF91EE20EF31EF60180814F5F8C
:1005A0005F4F6A0190ED980F9A3028F4282F30E0C1
:1005B0002053310911C09FE9980F963028F4282F55
:1005C00030E02755310908C09FEB980F963050F462
:1005D000282F30E0275331092B30310588F202C033
:1005E000E52CF32C833609F476C050F4853209F4F7
:1005F0008CC0883509F450C0882309F48EC089C0A6
:10060000833709F473C018F4843611F182C085373A
:1006100021F0883709F440C07CC03801F2E06F0E49
:10062000711C9E012F5F3F4F452D532D6AE070E0F6
:10063000F801808191810E949B018E010F5F1F4F05
:10064000242DA701B501C4010E941602830161C0D7
:100650003801F2E06F0E711CF801808191819923BD
:1006600044F4919581959109FDE2F9832F853889AC
:1006700002C02D853E85452D532D6AE070E00E9415
:100680009B018E010F5F1F4F242DA701B501C401EF
:100690000E94160283013DC0380122E0620E711CE7
:1006A00041E0522D883511F0452D532D9E012F5FCD
:1006B0003F4F60E170E0F801808191810E949B01D1
:1006C0008E010F5F1F4F242DA701B501C4010E94A9
:1006D000160283011EC07801F2E0EF0EF11CF80152
:1006E0006081C401F5010995870113C03801F2E06A
:1006F0006F0E711CF8010081118120E0A701B50186
:10070000C4010E941602830104C065E2C401F50120
:100710000995F6016081611111CF60960FB6F894CA
:10072000DEBF0FBECDBFDF91CF911F910F91FF9024
:10073000EF90DF90CF90BF90AF909F908F907F9081
:100740006F905F904F903F902F900895709373003B
:100750006093720090937100809370000895CF931E
:10076000DF93CDB7DEB79E012B5F3F4FF90141917B
:1007700051919F016091720070917300809170009F
:10078000909171000E947302DF91CF910895AA1B8E
:10079000BB1B51E107C0AA1FBB1FA617B70710F06C
:1007A000A61BB70B881F991F5A95A9F7809590959E
:1007B000BC01CD010895EE0FFF1F0590F491E02DCF
:1007C0000994A29FB001B39FC001A39F700D811D2A
:1007D0001124911DB29F700D811D1124911D08954A
:0407E000F894FFCFBB
:1007E400416E616C6F675F303100553D2535750092
:00000001FF
