S00F0000554152545F30322E7372656318
S11300000C942A000C943C000C943C000C943C008E
S11300100C943C000C943C000C943C000C943C006C
S11300200C943C000C943C000C943C000C943E005A
S11300300C948C000C943C000C943C000C943C00FC
S11300400C943C000C943C000C943C000C943C003C
S11300500C943C0011241FBECFE5D4E0DEBFCDBF1D
S113006020E0A0E6B0E001C01D92A136B207E1F79E
S11300700E94E0000C94FC000C9400001F920F926C
S113008000905F000F9211242F933F938F939F93BF
S1130090EF93FF93CF93DF93CDB7DEB71092600059
S11300A08BE290E0FC018081882F90E08071992799
S11300B0892B19F080E8809360008BE290E0FC01CA
S11300C08081882F90E084709927892B59F0809142
S11300D060008064882F90E0982F80916000892BC5
S11300E08093600085E390E02CE230E0F901208108
S11300F02F7030916000232BFC012083DF91CF917E
S1130100FF91EF919F918F913F912F910F900092CA
S11301105F000F901F9018951F920F9200905F0040
S11301200F9211242F933F938F939F93EF93FF93F9
S1130130CF93DF93CDB7DEB78CE290E029E330E0D4
S1130140F901208120952F70FC012083DF91CF914C
S1130150FF91EF919F918F913F912F910F9000927A
S11301605F000F901F901895CF93DF9300D0CDB709
S1130170DEB79A83898380E490E029813A81232F32
S11301803327FC01208389E290E029E230E0F90181
S113019030812981232BFC01208380E490E028EA2C
S11301A0FC0120838AE290E02AE230E0F901208118
S11301B0286BFC0120830F900F90DF91CF9108955D
S11301C0CF93DF93CDB7DEB78AE390E0FC011082D2
S11301D08BE390E02FE0FC01208384E390E02FEF99
S11301E0FC01208385E390E0FC0110828DE490E023
S10F01F00E94B4007894FFCFF894FFCF75
S9030000FC
