:100000000C942A000C9434000C9436000C943400A8
:100010000C9434000C9434000C9434000C94340090
:100020000C9434000C9434000C9434000C94340080
:100030000C9434000C9434000C9434000C94340070
:100040000C9434000C9434000C9434000C94340060
:100050000C94340011241FBECFE5D4E0DEBFCDBF29
:100060000E9445000C9459000C9400001F920F92BE
:100070000FB60F9211248F9385B38F5F85BB8F913D
:100080000F900FBE0F901F9018958AB3807F8ABB88
:100090008BB3806F8BBB15BA8FEF84BB81B381BBF1
:1000A000939A85B7886085BF8BB780688BBF78943B
:0600B000FFCFF894FFCF22
:00000001FF
