:100000000C942A000C9434000C9434000C943400AA
:100010000C9434000C9434000C9434000C94340090
:100020000C9434000C9434000C9436000C9434007E
:100030000C9434000C9434000C9434000C94340070
:100040000C9434000C9434000C9434000C94340060
:100050000C94340011241FBECFE5D4E0DEBFCDBF29
:100060000E9458000C9463000C9400001F920F92A1
:100070000FB60F9211248F939F938FB185BB99B3C5
:1000800089B39295907F9095907F80958F70892B02
:100090008FB99F918F910F900FBE0F901F90189561
:1000A00080EA87BB80E588BB82E18DB96E9A0895AE
:1000B0001ABA8FEF8BBB84BB15BA0E9450006F9A9F
:0A00C0001FB87894FFCFF894FFCF2B
:00000001FF
