:100000000C942A000C9434000C9434000C943400AA
:100010000C9434000C9434000C9434000C94340090
:100020000C9434000C9434000C9434000C94340080
:100030000C9434000C9434000C9434000C94340070
:100040000C9434000C9434000C9434000C94340060
:100050000C94340011241FBECFE5D4E0DEBFCDBF29
:100060000E9436000C944A000C9400001ABA8FE0EB
:100070008BBB8FEF84BB81E085BBCB99FECF95B363
:1000800085B3990F881F8827881F892B85BBCB9B39
:08009000FECFF3CFF894FFCF7F
:00000001FF
