:100000000C942A000C943C000C943C000C943C0092
:100010000C943C000C943C000C943C000C943C0070
:100020000C943C000C943E000C943C000C943C005E
:100030000C943C000C943C000C943C000C943C0050
:100040000C943C000C943C000C943C000C943C0040
:100050000C943C0011241FBECFE5D4E0DEBFCDBF21
:1000600020E0A0E6B0E001C01D92A236B207E1F7A1
:100070000E946B000C9475000C9400001F920F926C
:100080000FB60F9211248F939F93809160009091EF
:100090006100019690936100809360008091600000
:1000A00090916100849718F48FEF85BB0DC080910B
:1000B0006000909161008537910510F415BA04C075
:1000C00010926100109260009F918F910F900FBE6F
:1000D0000F901F9018958FEF84BB15BA83B781607E
:0E00E00083BF81E089BF7894FFCFF894FFCFF3
:00000001FF
