:100000000C9439000C944B000C944B000C944B0056
:100010000C944B000C944B000C944B000C944B0034
:100020000C944B000C944D000C944B000C944B0022
:100030000C944B000C944B000C944B000C944B0014
:100040000C944B000C944B000C944B000C944B0004
:100050000C944B0005A84CCDB2D44EB93836A90249
:100060000C50B9918688083CA6AAAA2ABE000000B6
:10007000803F11241FBECFE5D4E0DEBFCDBF21E01D
:10008000A0E6B0E001C01D92AA3CB207E1F70E94D1
:100090007E000C9454030C9400001F920F920FB634
:1000A0000F9211242F938F939F93EF93FF9380913F
:1000B0006000909161008836914048F4E0916000C2
:1000C000F0916100EE59FF4F80818CBF04C0109207
:1000D0006100109260008091600090916100019633
:1000E0009093610080936000FF91EF919F918F91B9
:1000F0002F910F900FBE0F901F901895C0E0D0E089
:10010000BE0180E090E00E94C9012BED3FE049E490
:1001100050E40E94570220E030E044E353E40E94A0
:1001200028010E94C40220E030E04EEF52E40E9419
:10013000570220E030E04EEF52E40E94BC000E94E3
:100140009A01FE01EE59FF4F60832196C83681E087
:10015000D807B1F68FEF87BB18BA83B7816083BF2A
:1001600083B7806283BF83B7886483BF89B78160A8
:1001700089BF7894FFCF5058BB27AA270E94D3008D
:100180000C941D020E940F0238F00E94160220F00B
:1001900039F49F3F19F426F40C940C020EF4E09508
:1001A000E7FB0C940602E92F0E942E0258F3BA17BF
:1001B000620773078407950720F079F4A6F50C947D
:1001C00050020EF4E0950B2EBA2FA02D0B01B901B1
:1001D00090010C01CA01A0011124FF27591B99F0BD
:1001E000593F50F4503E68F11A16F040A22F232FC9
:1001F000342F4427585FF3CF469537952795A79519
:10020000F0405395C9F77EF41F16BA0B620B730BBF
:10021000840BBAF09150A1F0FF0FBB1F661F771F30
:10022000881FC2F70EC0BA0F621F731F841F48F4E5
:10023000879577956795B795F7959E3F08F0B0CF6E
:100240009395880F08F09927EE0F97958795089555
:100250000E943C010C941D020E94160258F00E945C
:100260000F0240F029F45F3F29F00C94060251116F
:100270000C9451020C940C020E942E0268F39923F4
:10028000B1F3552391F3951B550BBB27AA27621792
:100290007307840738F09F5F5F4F220F331F441F9F
:1002A000AA1FA9F335D00E2E3AF0E0E832D09150D3
:1002B0005040E695001CCAF72BD0FE2F29D0660FC0
:1002C000771F881FBB1F261737074807AB07B0E803
:1002D00009F0BB0B802DBF01FF2793585F4F3AF009
:1002E0009E3F510578F00C9406020C9451025F3F3A
:1002F000E4F3983ED4F3869577956795B795F7958F
:100300009F5FC9F7880F911D9695879597F9089576
:10031000E1E0660F771F881FBB1F62177307840712
:10032000BA0720F0621B730B840BBA0BEE1F88F721
:10033000E09508950E94360288F09F5798F0B92FF3
:100340009927B751B0F0E1F0660F771F881F991F0A
:100350001AF0BA95C9F714C0B13091F00E9450025A
:10036000B1E008950C945002672F782F8827B85F6A
:1003700039F0B93FCCF3869577956795B395D9F762
:100380003EF490958095709561957F4F8F4F9F4F6C
:100390000895E89409C097FB3EF490958095709578
:1003A00061957F4F8F4F9F4F9923A9F0F92F96E9C1
:1003B000BB279395F695879577956795B795F11136
:1003C000F8CFFAF4BB0F11F460FF1BC06F5F7F4FD3
:1003D0008F4F9F4F16C0882311F096E911C07723E5
:1003E00021F09EE8872F762F05C0662371F096E8EE
:1003F000862F70E060E02AF09A95660F771F881FBD
:10040000DAF7880F9695879597F9089597F99F677A
:1004100080E870E060E008959FEF80EC089500248C
:100420000A941616170618060906089500240A9459
:1004300012161306140605060895092E0394000CDF
:1004400011F4882352F0BB0F40F4BF2B11F460FF6E
:1004500004C06F5F7F4F8F4F9F4F089557FD905897
:10046000440F551F59F05F3F71F04795880F97FB78
:10047000991F61F09F3F79F0879508951216130632
:100480001406551FF2CF4695F1DF08C01616170661
:100490001806991FF1CF8695710561050894089596
:1004A000E894BB2766277727CB0197F908950E9428
:1004B0006A020C941D020E940F0238F00E9416027C
:1004C00020F0952311F00C9406020C940C021124D8
:1004D0000C9451020E942E0270F3959FC1F3950F68
:1004E00050E0551F629FF001729FBB27F00DB11DB8
:1004F000639FAA27F00DB11DAA1F649F6627B00D48
:10050000A11D661F829F2227B00DA11D621F739F30
:10051000B00DA11D621F839FA00D611D221F749F3E
:100520003327A00D611D231F849F600D211D822F85
:10053000762F6A2F11249F5750409AF0F1F08823AC
:100540004AF0EE0FFF1FBB1F661F771F881F9150D9
:100550005040A9F79E3F510580F00C9406020C9480
:1005600051025F3FE4F3983ED4F386957795679503
:10057000B795F795E7959F5FC1F7FE2B880F911D03
:100580009695879597F908959F930E94CE020F90B4
:1005900007FCEE5F0C94F7020C940C020E943602EA
:1005A000D8F3E894E0E0BB279F57F0F02AED3FE056
:1005B00049EC06C0EE0FBB0F661F771F881F28F09F
:1005C000B23A62077307840728F0B25A620B730BC2
:1005D000840BE3959A9572F7803830F49A95BB0FA7
:1005E000661F771F881FD2F790480C940D03EF9376
:1005F000E0FF07C0A2EA2AED3FE049EC5FEB0E9472
:10060000D3000E941D020F90039401FC9058E4E572
:10061000F0E00C9419039F3F31F0915020F487953E
:1006200077956795B795880F911D9695879597F95A
:1006300008959F938F937F936F93FF93EF939B0105
:10064000AC010E945702EF91FF910E942D032F9160
:100650003F914F915F910C945702DF93CF931F937B
:100660000F93FF92EF92DF927B018C01689406C09A
:10067000DA2EEF010E946A02FE01E894A59125910D
:10068000359145915591A6F3EF010E94D300FE01EB
:100690009701A801DA9469F7DF90EF90FF900F912E
:0C06A0001F91CF91DF910895F894FFCFD7
:00000001FF
