S01800005363686C656966656E746573745F30312E73726563FB
S11300000C942A000C9434000C9434000C943400A6
S11300100C9434000C9434000C9434000C9434008C
S11300200C9434000C9434000C9434000C9434007C
S11300300C9434000C9434000C9434000C9434006C
S11300400C9434000C9434000C9434000C9434005C
S11300500C94340011241FBECFE5D4E0DEBFCDBF25
S11300600E9436000C9449000C9400008FEF84BB6E
S113007015BA90E0892F85BB2FE73FE442E1215078
S113008030404040E1F700C000008F5F893099F7AD
S1090090F1CFF894FFCF4C
S9030000FC
