:100000000C942A000C943C000C943C000C943C0092
:100010000C943C000C943C000C943C000C943C0070
:100020000C943C000C943E000C943C000C943C005E
:100030000C943C000C943C000C943C000C943C0050
:100040000C943C000C943C000C943C000C943C0040
:100050000C943C0011241FBECFE5D4E0DEBFCDBF21
:1000600020E0A0E6B0E001C01D92A236B207E1F7A1
:100070000E9463000C946D000C9400001F920F927C
:100080000FB60F9211242F938F939F93809160004E
:100090009091610001968D382BE592072CF4909396
:1000A00061008093600007C01092610010926000B0
:1000B00085B3809585BB9F918F912F910F900FBE37
:1000C0000F901F9018958FEF84BB15BA83B781608E
:0E00D00083BF81E089BF7894FFCFF894FFCF03
:00000001FF
